{"abi":[{"type":"constructor","inputs":[{"name":"characters","type":"address","internalType":"address"}],"stateMutability":"nonpayable"},{"type":"function","name":"battle","inputs":[{"name":"tokenA","type":"uint256","internalType":"uint256"},{"name":"tokenB","type":"uint256","internalType":"uint256"},{"name":"moveA","type":"uint8","internalType":"uint8"},{"name":"moveB","type":"uint8","internalType":"uint8"},{"name":"winnerNewURI","type":"string","internalType":"string"}],"outputs":[],"stateMutability":"nonpayable"},{"type":"function","name":"chars","inputs":[],"outputs":[{"name":"","type":"address","internalType":"contract IChars"}],"stateMutability":"view"},{"type":"event","name":"BattleResolved","inputs":[{"name":"tokenA","type":"uint256","indexed":false,"internalType":"uint256"},{"name":"tokenB","type":"uint256","indexed":false,"internalType":"uint256"},{"name":"winner","type":"uint256","indexed":false,"internalType":"uint256"},{"name":"dmgA","type":"uint16","indexed":false,"internalType":"uint16"},{"name":"dmgB","type":"uint16","indexed":false,"internalType":"uint16"},{"name":"rng","type":"uint256","indexed":false,"internalType":"uint256"},{"name":"moveA","type":"uint8","indexed":false,"internalType":"uint8"},{"name":"moveB","type":"uint8","indexed":false,"internalType":"uint8"}],"anonymous":false}],"bytecode":{"object":"0x60803461007357601f61076f38819003918201601f19168301916001600160401b038311848410176100775780849260209460405283398101031261007357516001600160a01b03811690819003610073575f80546001600160a01b0319169190911790556040516106e3908161008c8239f35b5f80fd5b634e487b7160e01b5f52604160045260245ffdfe6080806040526004361015610012575f80fd5b5f90813560e01c90816310a2cd0d1461047b57506347dd53ed14610034575f80fd5b346104785760a03660031901126104785760ff60443516604435036104785760ff60643516606435036104785767ffffffffffffffff60843511610478573660236084350112156104785767ffffffffffffffff608435600401351161047857366024608435600401356084350101116104785780546040516331a9108f60e11b815260048035908201526001600160a01b0390911690602081602481855afa9081156103f0578391610432575b50336001600160a01b03909116036103fb5760405163ad217ae560e01b8152600480359082015290608082602481845afa9182156103f05783926103cf575b506040519163ad217ae560e01b83526024356004840152608083602481855afa9283156103c4578493610393575b50604051446020820152600435604082015260243560608201523360601b6080820152426094820152609481528060c081011067ffffffffffffffff60c08301111761037f57846102018260c060409401845260208151910120936101c78561ffff8351166044359061ffff60208c01511690610567565b8761ffff86816101eb81869d511682602089015116908c60081c9160643591610567565b9889960151169201511690602435600435610666565b93803b1561035d578190602460405180948193636df3dc8d60e11b83528960048401525af1801561037457610361575b50608435600401356102ab575b9061ffff6101009392817f7e6459d878b1fa657d6c488f249c42b707cf825c5bb37abdb2db5c7c620372f5966040519560043587526024356020880152604087015216606085015216608083015260a082015260ff6044351660c082015260ff6064351660e0820152a180f35b845485906001600160a01b0316803b1561035d57816040518092630588253160e21b82528760048301526040602483015260843560040135604483015260843560040135602460843501606484013782606460843560040135840101528183606482601f19601f60843560040135011681010301925af1801561035257610334575b505061023e565b610341909493929461049f565b61034e579091845f61032d565b8480fd5b6040513d84823e3d90fd5b5080fd5b61036d9095919561049f565b935f610231565b6040513d88823e3d90fd5b634e487b7160e01b85526041600452602485fd5b6103b691935060803d6080116103bd575b6103ae81836104c7565b8101906104fc565b915f61014f565b503d6103a4565b6040513d86823e3d90fd5b6103e991925060803d6080116103bd576103ae81836104c7565b905f610121565b6040513d85823e3d90fd5b60405162461bcd60e51b815260206004820152600f60248201526e4d757374206f776e20746f6b656e4160881b6044820152606490fd5b90506020813d602011610470575b8161044d602093836104c7565b8101031261046c57516001600160a01b038116810361046c575f6100e2565b8280fd5b3d9150610440565b80fd5b90503461035d578160031936011261035d5790546001600160a01b03168152602090f35b67ffffffffffffffff81116104b357604052565b634e487b7160e01b5f52604160045260245ffd5b90601f8019910116810190811067ffffffffffffffff8211176104b357604052565b519061ffff821682036104f857565b5f80fd5b908160809103126104f857604051906080820182811067ffffffffffffffff8211176104b35761055f91606091604052610535816104e9565b8452610543602082016104e9565b6020850152610554604082016104e9565b6040850152016104e9565b606082015290565b92909161ffff80941693600a8306928386019384125f80971290801582169115161761065257617fff9384600196871c169087828203921281831281169183139015161761063e5782868212610636575b169260ff168581036105db57505050821c16915081156105d6575090565b905090565b600291929693959450146105f2575b505050905090565b60646019910610610604575b806105ea565b60038302928084046003149015171561062257501c16805f806105fe565b634e487b7160e01b81526011600452602490fd5b8691506105b8565b634e487b7160e01b87526011600452602487fd5b634e487b7160e01b86526011600452602486fd5b949192909361ffff808094169116908082116106a457116105ea57811691169080821161069e57116105d657808210156105d6575090565b50505090565b5050505050509056fea2646970667358221220da971dbe36b2c49b5f0de36631ee49a33c2f65be0690f3f9470ed495eaaa837664736f6c63430008140033","linkReferences":{}},"methodIdentifiers":{"battle(uint256,uint256,uint8,uint8,string)":"47dd53ed","chars()":"10a2cd0d"},"id":16}