{"abi":[{"type":"constructor","inputs":[],"stateMutability":"nonpayable"},{"type":"function","name":"approve","inputs":[{"name":"to","type":"address","internalType":"address"},{"name":"tokenId","type":"uint256","internalType":"uint256"}],"outputs":[],"stateMutability":"nonpayable"},{"type":"function","name":"balanceOf","inputs":[{"name":"owner","type":"address","internalType":"address"}],"outputs":[{"name":"","type":"uint256","internalType":"uint256"}],"stateMutability":"view"},{"type":"function","name":"battleContract","inputs":[],"outputs":[{"name":"","type":"address","internalType":"address"}],"stateMutability":"view"},{"type":"function","name":"bumpLevel","inputs":[{"name":"tokenId","type":"uint256","internalType":"uint256"}],"outputs":[],"stateMutability":"nonpayable"},{"type":"function","name":"getApproved","inputs":[{"name":"tokenId","type":"uint256","internalType":"uint256"}],"outputs":[{"name":"","type":"address","internalType":"address"}],"stateMutability":"view"},{"type":"function","name":"isApprovedForAll","inputs":[{"name":"owner","type":"address","internalType":"address"},{"name":"operator","type":"address","internalType":"address"}],"outputs":[{"name":"","type":"bool","internalType":"bool"}],"stateMutability":"view"},{"type":"function","name":"mintCharacter","inputs":[{"name":"to","type":"address","internalType":"address"},{"name":"atk","type":"uint16","internalType":"uint16"},{"name":"def","type":"uint16","internalType":"uint16"},{"name":"spd","type":"uint16","internalType":"uint16"},{"name":"uri","type":"string","internalType":"string"}],"outputs":[{"name":"","type":"uint256","internalType":"uint256"}],"stateMutability":"nonpayable"},{"type":"function","name":"name","inputs":[],"outputs":[{"name":"","type":"string","internalType":"string"}],"stateMutability":"view"},{"type":"function","name":"nextId","inputs":[],"outputs":[{"name":"","type":"uint256","internalType":"uint256"}],"stateMutability":"view"},{"type":"function","name":"owner","inputs":[],"outputs":[{"name":"","type":"address","internalType":"address"}],"stateMutability":"view"},{"type":"function","name":"ownerOf","inputs":[{"name":"tokenId","type":"uint256","internalType":"uint256"}],"outputs":[{"name":"","type":"address","internalType":"address"}],"stateMutability":"view"},{"type":"function","name":"renounceOwnership","inputs":[],"outputs":[],"stateMutability":"nonpayable"},{"type":"function","name":"safeTransferFrom","inputs":[{"name":"from","type":"address","internalType":"address"},{"name":"to","type":"address","internalType":"address"},{"name":"tokenId","type":"uint256","internalType":"uint256"}],"outputs":[],"stateMutability":"nonpayable"},{"type":"function","name":"safeTransferFrom","inputs":[{"name":"from","type":"address","internalType":"address"},{"name":"to","type":"address","internalType":"address"},{"name":"tokenId","type":"uint256","internalType":"uint256"},{"name":"data","type":"bytes","internalType":"bytes"}],"outputs":[],"stateMutability":"nonpayable"},{"type":"function","name":"setApprovalForAll","inputs":[{"name":"operator","type":"address","internalType":"address"},{"name":"approved","type":"bool","internalType":"bool"}],"outputs":[],"stateMutability":"nonpayable"},{"type":"function","name":"setBattleContract","inputs":[{"name":"_battle","type":"address","internalType":"address"}],"outputs":[],"stateMutability":"nonpayable"},{"type":"function","name":"setTokenURI","inputs":[{"name":"tokenId","type":"uint256","internalType":"uint256"},{"name":"newURI","type":"string","internalType":"string"}],"outputs":[],"stateMutability":"nonpayable"},{"type":"function","name":"stats","inputs":[{"name":"","type":"uint256","internalType":"uint256"}],"outputs":[{"name":"atk","type":"uint16","internalType":"uint16"},{"name":"def","type":"uint16","internalType":"uint16"},{"name":"spd","type":"uint16","internalType":"uint16"},{"name":"level","type":"uint16","internalType":"uint16"}],"stateMutability":"view"},{"type":"function","name":"supportsInterface","inputs":[{"name":"interfaceId","type":"bytes4","internalType":"bytes4"}],"outputs":[{"name":"","type":"bool","internalType":"bool"}],"stateMutability":"view"},{"type":"function","name":"symbol","inputs":[],"outputs":[{"name":"","type":"string","internalType":"string"}],"stateMutability":"view"},{"type":"function","name":"tokenURI","inputs":[{"name":"tokenId","type":"uint256","internalType":"uint256"}],"outputs":[{"name":"","type":"string","internalType":"string"}],"stateMutability":"view"},{"type":"function","name":"transferFrom","inputs":[{"name":"from","type":"address","internalType":"address"},{"name":"to","type":"address","internalType":"address"},{"name":"tokenId","type":"uint256","internalType":"uint256"}],"outputs":[],"stateMutability":"nonpayable"},{"type":"function","name":"transferOwnership","inputs":[{"name":"newOwner","type":"address","internalType":"address"}],"outputs":[],"stateMutability":"nonpayable"},{"type":"event","name":"Approval","inputs":[{"name":"owner","type":"address","indexed":true,"internalType":"address"},{"name":"approved","type":"address","indexed":true,"internalType":"address"},{"name":"tokenId","type":"uint256","indexed":true,"internalType":"uint256"}],"anonymous":false},{"type":"event","name":"ApprovalForAll","inputs":[{"name":"owner","type":"address","indexed":true,"internalType":"address"},{"name":"operator","type":"address","indexed":true,"internalType":"address"},{"name":"approved","type":"bool","indexed":false,"internalType":"bool"}],"anonymous":false},{"type":"event","name":"OwnershipTransferred","inputs":[{"name":"previousOwner","type":"address","indexed":true,"internalType":"address"},{"name":"newOwner","type":"address","indexed":true,"internalType":"address"}],"anonymous":false},{"type":"event","name":"Transfer","inputs":[{"name":"from","type":"address","indexed":true,"internalType":"address"},{"name":"to","type":"address","indexed":true,"internalType":"address"},{"name":"tokenId","type":"uint256","indexed":true,"internalType":"uint256"}],"anonymous":false},{"type":"error","name":"ERC721IncorrectOwner","inputs":[{"name":"sender","type":"address","internalType":"address"},{"name":"tokenId","type":"uint256","internalType":"uint256"},{"name":"owner","type":"address","internalType":"address"}]},{"type":"error","name":"ERC721InsufficientApproval","inputs":[{"name":"operator","type":"address","internalType":"address"},{"name":"tokenId","type":"uint256","internalType":"uint256"}]},{"type":"error","name":"ERC721InvalidApprover","inputs":[{"name":"approver","type":"address","internalType":"address"}]},{"type":"error","name":"ERC721InvalidOperator","inputs":[{"name":"operator","type":"address","internalType":"address"}]},{"type":"error","name":"ERC721InvalidOwner","inputs":[{"name":"owner","type":"address","internalType":"address"}]},{"type":"error","name":"ERC721InvalidReceiver","inputs":[{"name":"receiver","type":"address","internalType":"address"}]},{"type":"error","name":"ERC721InvalidSender","inputs":[{"name":"sender","type":"address","internalType":"address"}]},{"type":"error","name":"ERC721NonexistentToken","inputs":[{"name":"tokenId","type":"uint256","internalType":"uint256"}]},{"type":"error","name":"OwnableInvalidOwner","inputs":[{"name":"owner","type":"address","internalType":"address"}]},{"type":"error","name":"OwnableUnauthorizedAccount","inputs":[{"name":"account","type":"address","internalType":"address"}]}],"bytecode":{"object":"0x60803462000384576001600160401b039060408181018381118382101762000370578152601482526020917f496e63657074696f6e20436861726163746572730000000000000000000000008382015281519382850185811082821117620003705783526005855264125390d41560da1b84860152815181811162000370575f948554916001948584811c9416801562000365575b8385101462000351578190601f94858111620002fe575b5083908583116001146200029b5789926200028f575b50505f19600383901b1c191690851b1786555b86519283116200027b5783548481811c9116801562000270575b828210146200025c5782811162000214575b5080918311600114620001ae575084958293949592620001a2575b50505f19600383901b1c191690821b1790555b33156200018a5760068054336001600160a01b03198216811790925591519290916001600160a01b0316907f8be0079c531659141344cd1fd0a4f28419497f9722a3daafe3b4186f6b6457e09080a361136b9081620003898239f35b51631e4fbdf760e01b81526004810191909152602490fd5b015190505f806200011b565b90601f198316968487528287209287905b898210620001fc575050838596979810620001e3575b505050811b0190556200012e565b01515f1960f88460031b161c191690555f8080620001d5565b808785968294968601518155019501930190620001bf565b8487528187208380860160051c82019284871062000252575b0160051c019085905b8281106200024657505062000100565b88815501859062000236565b925081926200022d565b634e487b7160e01b87526022600452602487fd5b90607f1690620000ee565b634e487b7160e01b86526041600452602486fd5b015190505f80620000c1565b898052848a208894509190601f1984168b5b87828210620002e75750508411620002ce575b505050811b018655620000d4565b01515f1960f88460031b161c191690555f8080620002c0565b8385015186558b97909501949384019301620002ad565b9091508880528389208580850160051c82019286861062000347575b918991869594930160051c01915b82811062000338575050620000ab565b8b815585945089910162000328565b925081926200031a565b634e487b7160e01b88526022600452602488fd5b93607f169362000094565b634e487b7160e01b5f52604160045260245ffd5b5f80fdfe6080806040526004361015610012575f80fd5b5f3560e01c90816301ffc9a714610de25750806306fdde0314610d42578063081812fc14610d06578063095ea7b314610c255780630db6dff714610be2578063162094c414610a9157806323b872dd14610a7a578063423b1ca314610a5257806342842e0e14610a1957806361b8ce8c146109fc5780636352211e146109cc57806370a0823114610976578063715018a61461091b57806389ec18cf146105a95780638da5cb5b1461058157806395d89b41146104a5578063a22cb46514610404578063ad217ae5146103b4578063b88d4fde14610354578063c87b56dd14610278578063dbe7b91a146101fb578063e985e9c5146101a95763f2fde38b14610119575f80fd5b346101a55760203660031901126101a557610132610e8b565b61013a610f7e565b6001600160a01b0390811690811561018d57600654826bffffffffffffffffffffffff60a01b821617600655167f8be0079c531659141344cd1fd0a4f28419497f9722a3daafe3b4186f6b6457e05f80a3005b604051631e4fbdf760e01b81525f6004820152602490fd5b5f80fd5b346101a55760403660031901126101a5576101c2610e8b565b6101ca610ea1565b9060018060a01b038091165f52600560205260405f2091165f52602052602060ff60405f2054166040519015158152f35b346101a55760203660031901126101a55761022160018060a01b036009541633146112f2565b6004355f52600860205260405f2061ffff600181835460301c160190811161026457815467ffff000000000000191660309190911b61ffff60301b16179055005b005b634e487b7160e01b5f52601160045260245ffd5b346101a5576020806003193601126101a557600435610296816112b8565b505f526007815260405f209060405191825f82546102b381610faa565b938484526001918683821691825f146103325750506001146102f6575b50506102de92500383610eb7565b6102f2604051928284938452830190610e4d565b0390f35b8592505f52815f20905f915b85831061031a5750506102de935082010185806102d0565b80548389018501528794508693909201918101610302565b92509350506102de94915060ff191682840152151560051b82010185806102d0565b346101a55760803660031901126101a55761036d610e8b565b610375610ea1565b6064359167ffffffffffffffff83116101a557366023840112156101a5576103aa610262933690602481600401359101610ef5565b9160443591611165565b346101a55760203660031901126101a5576004355f526008602052608060405f20546040519061ffff908181168352818160101c166020840152818160201c16604084015260301c166060820152f35b346101a55760403660031901126101a55761041d610e8b565b602435908115158092036101a5576001600160a01b031690811561048c57335f52600560205260405f20825f5260205260405f2060ff1981541660ff83161790556040519081527f17307eab39ab6107e8899845ad3d59bd9653f200f220920489ca2b5937696c3160203392a3005b604051630b61174360e31b815260048101839052602490fd5b346101a5575f3660031901126101a5576040515f60018054906104c782610faa565b8085529181811690811561055a5750600114610502575b6102f2846104ee81860382610eb7565b604051918291602083526020830190610e4d565b5f81815292507fb10e2d527612073b26eecdfd717e6a320cf44b4afac2b0732d9fcbe2b7fa0cf65b8284106105425750505081016020016104ee826104de565b8054602085870181019190915290930192810161052a565b60ff191660208087019190915292151560051b850190920192506104ee91508390506104de565b346101a5575f3660031901126101a5576006546040516001600160a01b039091168152602090f35b346101a55760a03660031901126101a5576105c2610e8b565b6024359061ffff821682036101a5576044359161ffff831683036101a5576064359061ffff821682036101a55760843567ffffffffffffffff81116101a55761060f903690600401610f2b565b610617610f7e565b600a54935f1985146102645760018501600a556001600160a01b0381161561090357600185015f908152600260205260409020546001600160a01b03168015159190826108c2575b6001600160a01b03919091165f818152600360209081526040808320805460019081019091558a018084526002909252822080546001600160a01b0319168417905592907fddf252ad1be2c89b69c2b068fc378daa952ba7f163c4a11628f55a4df523b3ef9080a46108aa57600184015f52600760205260405f209080519067ffffffffffffffff82116107d65781906106f98454610faa565b601f811161085d575b50602090601f83116001146107f5575f926107ea575b50508160011b915f199060031b1c19161790555b60405190608082019282841067ffffffffffffffff8511176107d65760209561ffff80936107cb966040521684528287850191168152826040850192168252606084019160018352600187015f52600888528360405f2095511665ffff0000000063ffff00008754945160101b1692518a1b169265ffffffffffff19161717178355511661ffff60301b82549160301b169061ffff60301b1916179055565b600160405191018152f35b634e487b7160e01b5f52604160045260245ffd5b015190508780610718565b9250835f5260205f20905f935b601f1984168510610842576001945083601f1981161061082a575b505050811b01905561072c565b01515f1960f88460031b161c1916905587808061081d565b81810151835560209485019460019093019290910190610802565b909150835f5260205f20601f840160051c8101602085106108a3575b90849392915b601f830160051c82018110610895575050610702565b5f815585945060010161087f565b5080610879565b6040516339e3563760e11b81525f6004820152602490fd5b6108eb600188015f52600460205260405f206bffffffffffffffffffffffff60a01b8154169055565b805f52600360205260405f205f19815401905561065f565b604051633250574960e11b81525f6004820152602490fd5b346101a5575f3660031901126101a557610933610f7e565b600680546001600160a01b031981169091555f906001600160a01b03167f8be0079c531659141344cd1fd0a4f28419497f9722a3daafe3b4186f6b6457e08280a3005b346101a55760203660031901126101a5576001600160a01b03610997610e8b565b1680156109b4575f526003602052602060405f2054604051908152f35b6040516322718ad960e21b81525f6004820152602490fd5b346101a55760203660031901126101a55760206109ea6004356112b8565b6040516001600160a01b039091168152f35b346101a5575f3660031901126101a5576020600a54604051908152f35b346101a557610a2736610f49565b60405191602083019383851067ffffffffffffffff8611176107d657610262946040525f8452611165565b346101a5575f3660031901126101a5576009546040516001600160a01b039091168152602090f35b346101a557610262610a8b36610f49565b91610fe2565b346101a55760403660031901126101a55767ffffffffffffffff6024358181116101a557610ac3903690600401610f2b565b90610ad960018060a01b036009541633146112f2565b6004355f526020906007825260405f209183519182116107d657610afd8354610faa565b601f8111610b9f575b5080601f8311600114610b4057508192935f92610b35575b50505f19600383901b1c191660019190911b179055005b015190508380610b1e565b90601f19831694845f52825f20925f905b878210610b87575050836001959610610b6f575b505050811b019055005b01515f1960f88460031b161c19169055838080610b65565b80600185968294968601518155019501930190610b51565b835f52815f20601f840160051c810191838510610bd8575b601f0160051c01905b818110610bcd5750610b06565b5f8155600101610bc0565b9091508190610bb7565b346101a55760203660031901126101a557610bfb610e8b565b610c03610f7e565b600980546001600160a01b0319166001600160a01b0392909216919091179055005b346101a55760403660031901126101a557610c3e610e8b565b602435610c4a816112b8565b33151580610cf3575b80610cca575b610cb2576001600160a01b039283169282918491167f8c5be1e5ebec7d5bd14f71427d1e84f3dd0314c0f7b2291e5b200ac8c7c3b9255f80a45f90815260046020526040902080546001600160a01b0319169091179055005b60405163a9fbf51f60e01b8152336004820152602490fd5b5060018060a01b0381165f52600560205260405f20335f5260205260ff60405f20541615610c59565b506001600160a01b038116331415610c53565b346101a55760203660031901126101a557600435610d23816112b8565b505f526004602052602060018060a01b0360405f205416604051908152f35b346101a5575f3660031901126101a5576040515f8054610d6181610faa565b8084529060019081811690811561055a5750600114610d8a576102f2846104ee81860382610eb7565b5f80805292507f290decd9548b62a8d60345a988386fc84ba6bc95484008f6362f93160ef3e5635b828410610dca5750505081016020016104ee826104de565b80546020858701810191909152909301928101610db2565b346101a55760203660031901126101a5576004359063ffffffff60e01b82168092036101a5576020916380ac58cd60e01b8114908115610e3c575b8115610e2b575b5015158152f35b6301ffc9a760e01b14905083610e24565b635b5e139f60e01b81149150610e1d565b91908251928382525f5b848110610e77575050825f602080949584010152601f8019910116010190565b602081830181015184830182015201610e57565b600435906001600160a01b03821682036101a557565b602435906001600160a01b03821682036101a557565b90601f8019910116810190811067ffffffffffffffff8211176107d657604052565b67ffffffffffffffff81116107d657601f01601f191660200190565b929192610f0182610ed9565b91610f0f6040519384610eb7565b8294818452818301116101a5578281602093845f960137010152565b9080601f830112156101a557816020610f4693359101610ef5565b90565b60609060031901126101a5576001600160a01b039060043582811681036101a5579160243590811681036101a5579060443590565b6006546001600160a01b03163303610f9257565b60405163118cdaa760e01b8152336004820152602490fd5b90600182811c92168015610fd8575b6020831014610fc457565b634e487b7160e01b5f52602260045260245ffd5b91607f1691610fb9565b6001600160a01b039182169290918315610903575f928284528260209560028752604096848888205416968791331515806110cf575b509060027fddf252ad1be2c89b69c2b068fc378daa952ba7f163c4a11628f55a4df523b3ef928461109e575b858352600381528b8320805460010190558683525289812080546001600160a01b0319168517905580a4169283830361107d5750505050565b6064945051926364283d7b60e01b8452600484015260248301526044820152fd5b5f87815260046020526040902080546001600160a01b0319169055848352600381528b832080545f19019055611044565b91939450915080611124575b156110eb5785929187915f611018565b878688611108576024915190637e27328960e01b82526004820152fd5b604491519063177e802f60e01b82523360048301526024820152fd5b503387148015611149575b806110db57508582526004815233858984205416146110db565b5086825260058152878220338352815260ff888320541661112f565b929092611173838583610fe2565b833b611180575b50505050565b604051630a85bd0160e11b8082523360048301526001600160a01b03928316602483015260448201949094526080606482015294931692602092909185906111cc906084830190610e4d565b039483815f978189895af1869181611274575b5061123f575050503d5f14611236573d6111f881610ed9565b906112066040519283610eb7565b81528093823d92013e5b8251928361123157604051633250574960e11b815260048101849052602490fd5b019050fd5b60609250611210565b919450915063ffffffff60e01b160361125c57505f80808061117a565b60249060405190633250574960e11b82526004820152fd5b9091508481813d83116112b1575b61128c8183610eb7565b810103126112ad57516001600160e01b0319811681036112ad57905f6111df565b8680fd5b503d611282565b5f818152600260205260409020546001600160a01b03169081156112da575090565b60249060405190637e27328960e01b82526004820152fd5b156112f957565b60405162461bcd60e51b815260206004820152601460248201527313db9b1e4818985d1d1b194818dbdb9d1c9858dd60621b6044820152606490fdfea264697066735822122029e814a98fc2882191f02d49c0f64dd1107c574c899e8ad58ec6f6625d3d59ef64736f6c63430008140033","linkReferences":{}},"methodIdentifiers":{"approve(address,uint256)":"095ea7b3","balanceOf(address)":"70a08231","battleContract()":"423b1ca3","bumpLevel(uint256)":"dbe7b91a","getApproved(uint256)":"081812fc","isApprovedForAll(address,address)":"e985e9c5","mintCharacter(address,uint16,uint16,uint16,string)":"89ec18cf","name()":"06fdde03","nextId()":"61b8ce8c","owner()":"8da5cb5b","ownerOf(uint256)":"6352211e","renounceOwnership()":"715018a6","safeTransferFrom(address,address,uint256)":"42842e0e","safeTransferFrom(address,address,uint256,bytes)":"b88d4fde","setApprovalForAll(address,bool)":"a22cb465","setBattleContract(address)":"0db6dff7","setTokenURI(uint256,string)":"162094c4","stats(uint256)":"ad217ae5","supportsInterface(bytes4)":"01ffc9a7","symbol()":"95d89b41","tokenURI(uint256)":"c87b56dd","transferFrom(address,address,uint256)":"23b872dd","transferOwnership(address)":"f2fde38b"},"id":17}