{"abi":[{"type":"constructor","inputs":[],"stateMutability":"nonpayable"},{"type":"function","name":"buyNFT","inputs":[{"name":"listingId","type":"uint256","internalType":"uint256"}],"outputs":[],"stateMutability":"payable"},{"type":"function","name":"cancelListing","inputs":[{"name":"listingId","type":"uint256","internalType":"uint256"}],"outputs":[],"stateMutability":"nonpayable"},{"type":"function","name":"getActiveListing","inputs":[{"name":"nftContract","type":"address","internalType":"address"},{"name":"tokenId","type":"uint256","internalType":"uint256"}],"outputs":[{"name":"","type":"tuple","internalType":"struct InceptionMarketplace.Listing","components":[{"name":"listingId","type":"uint256","internalType":"uint256"},{"name":"seller","type":"address","internalType":"address"},{"name":"nftContract","type":"address","internalType":"address"},{"name":"tokenId","type":"uint256","internalType":"uint256"},{"name":"price","type":"uint256","internalType":"uint256"},{"name":"isActive","type":"bool","internalType":"bool"},{"name":"listedAt","type":"uint256","internalType":"uint256"}]}],"stateMutability":"view"},{"type":"function","name":"listNFT","inputs":[{"name":"nftContract","type":"address","internalType":"address"},{"name":"tokenId","type":"uint256","internalType":"uint256"},{"name":"price","type":"uint256","internalType":"uint256"}],"outputs":[{"name":"","type":"uint256","internalType":"uint256"}],"stateMutability":"nonpayable"},{"type":"function","name":"listings","inputs":[{"name":"","type":"uint256","internalType":"uint256"}],"outputs":[{"name":"listingId","type":"uint256","internalType":"uint256"},{"name":"seller","type":"address","internalType":"address"},{"name":"nftContract","type":"address","internalType":"address"},{"name":"tokenId","type":"uint256","internalType":"uint256"},{"name":"price","type":"uint256","internalType":"uint256"},{"name":"isActive","type":"bool","internalType":"bool"},{"name":"listedAt","type":"uint256","internalType":"uint256"}],"stateMutability":"view"},{"type":"function","name":"nftToListing","inputs":[{"name":"","type":"address","internalType":"address"},{"name":"","type":"uint256","internalType":"uint256"}],"outputs":[{"name":"","type":"uint256","internalType":"uint256"}],"stateMutability":"view"},{"type":"function","name":"owner","inputs":[],"outputs":[{"name":"","type":"address","internalType":"address"}],"stateMutability":"view"},{"type":"function","name":"platformFee","inputs":[],"outputs":[{"name":"","type":"uint256","internalType":"uint256"}],"stateMutability":"view"},{"type":"function","name":"renounceOwnership","inputs":[],"outputs":[],"stateMutability":"nonpayable"},{"type":"function","name":"setPlatformFee","inputs":[{"name":"newFee","type":"uint256","internalType":"uint256"}],"outputs":[],"stateMutability":"nonpayable"},{"type":"function","name":"transferOwnership","inputs":[{"name":"newOwner","type":"address","internalType":"address"}],"outputs":[],"stateMutability":"nonpayable"},{"type":"function","name":"updatePrice","inputs":[{"name":"listingId","type":"uint256","internalType":"uint256"},{"name":"newPrice","type":"uint256","internalType":"uint256"}],"outputs":[],"stateMutability":"nonpayable"},{"type":"function","name":"withdrawFees","inputs":[],"outputs":[],"stateMutability":"nonpayable"},{"type":"event","name":"ListingCancelled","inputs":[{"name":"listingId","type":"uint256","indexed":true,"internalType":"uint256"}],"anonymous":false},{"type":"event","name":"NFTListed","inputs":[{"name":"listingId","type":"uint256","indexed":true,"internalType":"uint256"},{"name":"seller","type":"address","indexed":true,"internalType":"address"},{"name":"nftContract","type":"address","indexed":true,"internalType":"address"},{"name":"tokenId","type":"uint256","indexed":false,"internalType":"uint256"},{"name":"price","type":"uint256","indexed":false,"internalType":"uint256"}],"anonymous":false},{"type":"event","name":"NFTSold","inputs":[{"name":"listingId","type":"uint256","indexed":true,"internalType":"uint256"},{"name":"seller","type":"address","indexed":true,"internalType":"address"},{"name":"buyer","type":"address","indexed":true,"internalType":"address"},{"name":"price","type":"uint256","indexed":false,"internalType":"uint256"},{"name":"platformFee","type":"uint256","indexed":false,"internalType":"uint256"}],"anonymous":false},{"type":"event","name":"OwnershipTransferred","inputs":[{"name":"previousOwner","type":"address","indexed":true,"internalType":"address"},{"name":"newOwner","type":"address","indexed":true,"internalType":"address"}],"anonymous":false},{"type":"error","name":"OwnableInvalidOwner","inputs":[{"name":"owner","type":"address","internalType":"address"}]},{"type":"error","name":"OwnableUnauthorizedAccount","inputs":[{"name":"account","type":"address","internalType":"address"}]},{"type":"error","name":"ReentrancyGuardReentrantCall","inputs":[]}],"bytecode":{"object":"0x608080604052346100825760015f55331561006d5760018054336001600160a01b03198216811790925560405191906001600160a01b03167f8be0079c531659141344cd1fd0a4f28419497f9722a3daafe3b4186f6b6457e05f80a36101f4600255610c7690816100878239f35b631e4fbdf760e01b81525f6004820152602490fd5b5f80fdfe60406080815260049081361015610014575f80fd5b5f91823560e01c806312e8e2c314610a6957806326232a2e14610a4a578063305a67a8146109ca578063476343ee1461097a57806351ed82881461074d5780635c8ae64a1461070c578063715018a6146106ac57806382367b2d146106265780638da5cb5b146105fd578063ad05f1b4146102c1578063bad27f9b146101b4578063de74e57b1461013f5763f2fde38b146100ad575f80fd5b3461013b57602036600319011261013b576100c6610ac9565b906100cf610ae3565b6001600160a01b03918216928315610125575050600154826bffffffffffffffffffffffff60a01b821617600155167f8be0079c531659141344cd1fd0a4f28419497f9722a3daafe3b4186f6b6457e05f80a380f35b51631e4fbdf760e01b8152908101849052602490fd5b8280fd5b503461013b57602036600319011261013b578160e09382358152826020522080549260018060a01b0392836001840154169360028401541660038401549184015492600660ff600587015416950154958151978852602088015286015260608501526080840152151560a083015260c0820152f35b509190346102bd57806003193601126102bd5760e0926101d2610ac9565b92828051916101e083610b0f565b8083528060c0602094828682015282858201528260608201528260808201528260a0820152015260018060a01b0380961681526005835281812060243582528352818120548152838352209183519361023885610b0f565b835495868652806001860154169380870194855281600287015416908388019182528260038801549560608a019687528801549660808a0197885260c0600660ff60058c0154169a60a08d019b15158c5201549a01998a5285519a8b5251169089015251169086015251606085015251608084015251151560a08301525160c0820152f35b5080fd5b50903461013b57606036600319011261013b576102dc610ac9565b91602492833590604435906102ef610b80565b81156105bb5784516331a9108f60e11b81528085018490526020966001600160a01b039283169591888183818a5afa908115610528578a9161059e575b50833391160361056c57865163e985e9c560e01b81523383820152308282015288816044818a5afa908115610528578a91610532575b5080156104c9575b1561048757600354905f1982146104765750600685938a869489978c9d9960019b8c8e98019e8f96876003558951998a976103a489610b0f565b89895287848a0194338652838b0196875260608b0197885260808b0198895260c060a08c019b60018d52019b428d528352522099518a55808f8b01925116916bffffffffffffffffffffffff60a01b928382541617905560028a01925116908254161790555160038701555190850155600584019051151560ff80198354169116179055519101558284526005885285842082855288528686852055855191825287820152857fb0fe4922ac99799c17a4130d5c045ba2ecdf6e15b75b9ea84aaf0dc28724a42b863393a45551908152f35b634e487b7160e01b8a526011835289fd5b865162461bcd60e51b81529182018890526018908201527f4d61726b6574706c616365206e6f7420617070726f76656400000000000000006044820152606490fd5b50865163020604bf60e21b8152828101869052888183818a5afa908115610528578a916104fb575b508316301461036a565b61051b9150893d8b11610521575b6105138183610b3f565b810190610b61565b5f6104f1565b503d610509565b88513d8c823e3d90fd5b90508881813d8311610565575b6105498183610b3f565b8101031261056157518015158103610561575f610362565b8980fd5b503d61053f565b865162461bcd60e51b8152918201889052600d908201526c2737ba103a34329037bbb732b960991b6044820152606490fd5b6105b59150893d8b11610521576105138183610b3f565b5f61032c565b845162461bcd60e51b8152602081860152601c818801527f5072696365206d7573742062652067726561746572207468616e2030000000006044820152606490fd5b5050346102bd57816003193601126102bd5760015490516001600160a01b039091168152602090f35b503461013b578160031936011261013b576024359181358452816020528084209061065e60018060a01b036001840154163314610c03565b61066e60ff600584015416610ba1565b831561067a5750015580f35b5162461bcd60e51b8152602081840152600d60248201526c496e76616c696420707269636560981b6044820152606490fd5b83346107095780600319360112610709576106c5610ae3565b600180546001600160a01b031981169091555f906001600160a01b03167f8be0079c531659141344cd1fd0a4f28419497f9722a3daafe3b4186f6b6457e08280a380f35b80fd5b5050346102bd57806003193601126102bd5760209181906001600160a01b03610733610ac9565b168152600584528181206024358252845220549051908152f35b50602036600319011261013b578035610764610b80565b80845281602052828420926005840180549361078260ff8616610ba1565b8086019485549687341061094057600181019260018060a01b039485855416938433146109085760ff19169055600254808a02908a8204148a1517156108f5576107d26127108c9204809b610be2565b9360038760028601541694015490843b1561013b57606490838a519687948593632142170760e11b85528885015233602485015260448401525af180156108eb576108bb575b50508780808093868654168282156108b2575bf11561089f5786855480341161087b575b5050907f5fafad85dec201c2e73b6a2bef6351129304a624ea8720ecd04cd7f04d83bc3992915416935494815195865260208601523394a46001815580f35b8180610888819334610be2565b8181156108a9575b3390f11561089f57865f61083c565b82513d88823e3d90fd5b506108fc610890565b506108fc61082b565b67ffffffffffffffff829a939a116108d857508452965f80610818565b634e487b7160e01b835260419052602482fd5b86513d8c823e3d90fd5b634e487b7160e01b8b526011825260248bfd5b875162461bcd60e51b8152602081850152601260248201527110d85b9b9bdd08189d5e481bdddb8813919560721b6044820152606490fd5b845162461bcd60e51b81526020818501526014602482015273125b9cdd59999a58da595b9d081c185e5b595b9d60621b6044820152606490fd5b5050346102bd57816003193601126102bd57610994610ae3565b8180808060018060a01b036001541647908282156109c1575bf1156109b7575080f35b51903d90823e3d90fd5b506108fc6109ad565b50903461013b57602036600319011261013b576005908235926109eb610b80565b8385526020528320610a0a60018060a01b036001830154163314610c03565b018054610a1960ff8216610ba1565b60ff191690557f411aee90354c51b1b04cd563fcab2617142a9d50da19232d888547c8a1b7fd8a8280a26001815580f35b5050346102bd57816003193601126102bd576020906002549051908152f35b503461013b57602036600319011261013b57803591610a86610ae3565b6103e88311610a9757505060025580f35b906020606492519162461bcd60e51b8352820152600c60248201526b08ccaca40e8dede40d0d2ced60a31b6044820152fd5b600435906001600160a01b0382168203610adf57565b5f80fd5b6001546001600160a01b03163303610af757565b60405163118cdaa760e01b8152336004820152602490fd5b60e0810190811067ffffffffffffffff821117610b2b57604052565b634e487b7160e01b5f52604160045260245ffd5b90601f8019910116810190811067ffffffffffffffff821117610b2b57604052565b90816020910312610adf57516001600160a01b0381168103610adf5790565b60025f5414610b8f5760025f55565b604051633ee5aeb560e01b8152600490fd5b15610ba857565b60405162461bcd60e51b81526020600482015260126024820152714c697374696e67206e6f742061637469766560701b6044820152606490fd5b91908203918211610bef57565b634e487b7160e01b5f52601160045260245ffd5b15610c0a57565b60405162461bcd60e51b815260206004820152600e60248201526d2737ba103a34329039b2b63632b960911b6044820152606490fdfea2646970667358221220fd96d6cc7626b6049e6401b03dc6c2b4e060c0e7efae43de77943709ab94bd9c64736f6c63430008140033","linkReferences":{}},"methodIdentifiers":{"buyNFT(uint256)":"51ed8288","cancelListing(uint256)":"305a67a8","getActiveListing(address,uint256)":"bad27f9b","listNFT(address,uint256,uint256)":"ad05f1b4","listings(uint256)":"de74e57b","nftToListing(address,uint256)":"5c8ae64a","owner()":"8da5cb5b","platformFee()":"26232a2e","renounceOwnership()":"715018a6","setPlatformFee(uint256)":"12e8e2c3","transferOwnership(address)":"f2fde38b","updatePrice(uint256,uint256)":"82367b2d","withdrawFees()":"476343ee"},"id":33}