{"abi":[{"type":"constructor","inputs":[{"name":"nftAddress","type":"address","internalType":"address"}],"stateMutability":"nonpayable"},{"type":"function","name":"buy","inputs":[{"name":"tokenId","type":"uint256","internalType":"uint256"}],"outputs":[],"stateMutability":"payable"},{"type":"function","name":"cancel","inputs":[{"name":"tokenId","type":"uint256","internalType":"uint256"}],"outputs":[],"stateMutability":"nonpayable"},{"type":"function","name":"list","inputs":[{"name":"tokenId","type":"uint256","internalType":"uint256"},{"name":"price","type":"uint256","internalType":"uint256"}],"outputs":[],"stateMutability":"nonpayable"},{"type":"function","name":"listings","inputs":[{"name":"","type":"uint256","internalType":"uint256"}],"outputs":[{"name":"seller","type":"address","internalType":"address"},{"name":"price","type":"uint256","internalType":"uint256"}],"stateMutability":"view"},{"type":"function","name":"nft","inputs":[],"outputs":[{"name":"","type":"address","internalType":"contract IERC721"}],"stateMutability":"view"},{"type":"event","name":"Bought","inputs":[{"name":"tokenId","type":"uint256","indexed":true,"internalType":"uint256"},{"name":"buyer","type":"address","indexed":false,"internalType":"address"},{"name":"price","type":"uint256","indexed":false,"internalType":"uint256"}],"anonymous":false},{"type":"event","name":"Cancelled","inputs":[{"name":"tokenId","type":"uint256","indexed":true,"internalType":"uint256"}],"anonymous":false},{"type":"event","name":"Listed","inputs":[{"name":"tokenId","type":"uint256","indexed":true,"internalType":"uint256"},{"name":"price","type":"uint256","indexed":false,"internalType":"uint256"}],"anonymous":false},{"type":"error","name":"ReentrancyGuardReentrantCall","inputs":[]}],"bytecode":{"object":"0x60803461007457601f61065e38819003918201601f19168301916001600160401b038311848410176100785780849260209460405283398101031261007457516001600160a01b038116908190036100745760015f5560018060a01b031960015416176001556040516105d1908161008d8239f35b5f80fd5b634e487b7160e01b5f52604160045260245ffdfe60806040818152600480361015610014575f80fd5b5f92833560e01c90816340e58ee5146104a45750806347ccca021461047b57806350fd73671461024a578063d96a094a1461009a5763de74e57b14610057575f80fd5b34610096576020366003190112610096573582526002602090815291819020805460019091015491516001600160a01b03909116815291820152604090f35b8280fd5b50906020806003193601126101bb57823592600285541461023c576002855583855260028252828520908351916100d083610557565b80546001600160a01b03908116845260019091015484840181815294901561020d57845134036101dd5790600288949392888652525f600187862082815501558380808084875116819034156101d3575b3491f1156101c9578060015416925116823b156101bb57606484928388519586948593632142170760e11b85528401523360248401528a60448401525af180156101bf576101a7575b505051905133815260208101919091527fd2728f908c7e0feb83c6278798370fcb86b62f236c9dbf1a3f541096c215904090604090a26001815580f35b6101b090610587565b6101bb57835f61016a565b8380fd5b84513d84823e3d90fd5b85513d85823e3d90fd5b6108fc9150610121565b8260649187519162461bcd60e51b8352820152600b60248201526a57726f6e6720707269636560a81b6044820152fd5b8260649187519162461bcd60e51b8352820152600a602482015269139bdd081b1a5cdd195960b21b6044820152fd5b8251633ee5aeb560e01b8152fd5b5082903461047757826003193601126104775780359060243560018060a01b039485600154168151936331a9108f60e11b855285818601526020948581602481865afa90811561046d578891610409575b5088339116036103da57831561039757813b1561039357825163095ea7b360e01b8152309181019182526020820187905291879183919082908490829060400103925af1801561038957610356575b507f1ea45e30b31292f9d7c5d37d275b2feca555f13f47dce0fdea2f47e8852ecd78939495600182519161031d83610557565b33835285830190858252888a5260028752848a209351166bffffffffffffffffffffffff60a01b8454161783555191015551908152a280f35b946103827f1ea45e30b31292f9d7c5d37d275b2feca555f13f47dce0fdea2f47e8852ecd789596610587565b94936102ea565b82513d88823e3d90fd5b8680fd5b825162461bcd60e51b8152908101859052601c60248201527f5072696365206d7573742062652067726561746572207468616e2030000000006044820152606490fd5b825162461bcd60e51b815290810185905260096024820152682737ba1037bbb732b960b91b6044820152606490fd5b9050853d8711610466575b601f8101601f1916820167ffffffffffffffff811183821017610453578791839187528101031261044f5751888116810361044f578961029b565b8780fd5b634e487b7160e01b8a526041845260248afd5b503d610414565b84513d8a823e3d90fd5b5080fd5b50503461047757816003193601126104775760015490516001600160a01b039091168152602090f35b92919050346101bb5760203660031901126101bb578035928385526002602052828520906104d181610557565b60206001808060a01b0384541693848452015491015233036105285750600183918383526002602052822082815501557fc41d93b8bfbf9fd7cf5bfe271fd649ab6a6fec0ea101c23b82a2a28eca2533a98280a280f35b6020606492519162461bcd60e51b8352820152600a6024820152692737ba1039b2b63632b960b11b6044820152fd5b6040810190811067ffffffffffffffff82111761057357604052565b634e487b7160e01b5f52604160045260245ffd5b67ffffffffffffffff81116105735760405256fea2646970667358221220a9439cd25c42b0598968e727b8e3d153b0ca3992c6bc90908a3286113fe0987664736f6c63430008140033","linkReferences":{}},"methodIdentifiers":{"buy(uint256)":"d96a094a","cancel(uint256)":"40e58ee5","list(uint256,uint256)":"50fd7367","listings(uint256)":"de74e57b","nft()":"47ccca02"},"id":18}